{
  "contractName": "Ecommerce",
  "abi": [
    {
      "inputs": [],
      "payable": false,
      "stateMutability": "nonpayable",
      "type": "constructor"
    },
    {
      "anonymous": false,
      "inputs": [
        {
          "indexed": false,
          "internalType": "uint256",
          "name": "last_index",
          "type": "uint256"
        },
        {
          "indexed": false,
          "internalType": "uint256",
          "name": "product_id",
          "type": "uint256"
        },
        {
          "indexed": false,
          "internalType": "string",
          "name": "phone_number",
          "type": "string"
        },
        {
          "indexed": false,
          "internalType": "address",
          "name": "author",
          "type": "address"
        }
      ],
      "name": "cartitemadded",
      "type": "event"
    },
    {
      "anonymous": false,
      "inputs": [
        {
          "indexed": false,
          "internalType": "string",
          "name": "name",
          "type": "string"
        },
        {
          "indexed": false,
          "internalType": "uint256",
          "name": "age",
          "type": "uint256"
        },
        {
          "indexed": false,
          "internalType": "string",
          "name": "gender",
          "type": "string"
        },
        {
          "indexed": false,
          "internalType": "address",
          "name": "author",
          "type": "address"
        }
      ],
      "name": "member_added",
      "type": "event"
    },
    {
      "anonymous": false,
      "inputs": [
        {
          "indexed": false,
          "internalType": "uint256",
          "name": "id",
          "type": "uint256"
        },
        {
          "indexed": false,
          "internalType": "string",
          "name": "username",
          "type": "string"
        },
        {
          "indexed": false,
          "internalType": "string",
          "name": "userphone",
          "type": "string"
        },
        {
          "indexed": false,
          "internalType": "string",
          "name": "product_title",
          "type": "string"
        },
        {
          "indexed": false,
          "internalType": "string",
          "name": "product_quantity",
          "type": "string"
        },
        {
          "indexed": false,
          "internalType": "string",
          "name": "date",
          "type": "string"
        },
        {
          "indexed": false,
          "internalType": "uint256",
          "name": "price",
          "type": "uint256"
        },
        {
          "indexed": false,
          "internalType": "address",
          "name": "author",
          "type": "address"
        }
      ],
      "name": "ordercreated",
      "type": "event"
    },
    {
      "anonymous": false,
      "inputs": [
        {
          "indexed": false,
          "internalType": "uint256",
          "name": "id",
          "type": "uint256"
        },
        {
          "indexed": false,
          "internalType": "string",
          "name": "title",
          "type": "string"
        },
        {
          "indexed": false,
          "internalType": "uint256",
          "name": "price",
          "type": "uint256"
        },
        {
          "indexed": false,
          "internalType": "string",
          "name": "desc",
          "type": "string"
        },
        {
          "indexed": false,
          "internalType": "string",
          "name": "image",
          "type": "string"
        },
        {
          "indexed": false,
          "internalType": "string",
          "name": "quantity",
          "type": "string"
        },
        {
          "indexed": false,
          "internalType": "address",
          "name": "author",
          "type": "address"
        }
      ],
      "name": "productcreated",
      "type": "event"
    },
    {
      "anonymous": false,
      "inputs": [
        {
          "indexed": false,
          "internalType": "uint256",
          "name": "id",
          "type": "uint256"
        },
        {
          "indexed": false,
          "internalType": "address",
          "name": "author",
          "type": "address"
        }
      ],
      "name": "productdeleted",
      "type": "event"
    },
    {
      "anonymous": false,
      "inputs": [
        {
          "indexed": false,
          "internalType": "uint256",
          "name": "id",
          "type": "uint256"
        },
        {
          "indexed": false,
          "internalType": "string",
          "name": "title",
          "type": "string"
        },
        {
          "indexed": false,
          "internalType": "uint256",
          "name": "price",
          "type": "uint256"
        },
        {
          "indexed": false,
          "internalType": "string",
          "name": "desc",
          "type": "string"
        },
        {
          "indexed": false,
          "internalType": "string",
          "name": "image",
          "type": "string"
        },
        {
          "indexed": false,
          "internalType": "string",
          "name": "quantity",
          "type": "string"
        },
        {
          "indexed": false,
          "internalType": "address",
          "name": "author",
          "type": "address"
        }
      ],
      "name": "productedited",
      "type": "event"
    },
    {
      "anonymous": false,
      "inputs": [
        {
          "indexed": false,
          "internalType": "string",
          "name": "name",
          "type": "string"
        },
        {
          "indexed": false,
          "internalType": "string",
          "name": "phone_number",
          "type": "string"
        },
        {
          "indexed": false,
          "internalType": "string",
          "name": "address_",
          "type": "string"
        },
        {
          "indexed": false,
          "internalType": "string",
          "name": "gender",
          "type": "string"
        },
        {
          "indexed": false,
          "internalType": "uint256",
          "name": "age",
          "type": "uint256"
        },
        {
          "indexed": false,
          "internalType": "uint256",
          "name": "counter",
          "type": "uint256"
        },
        {
          "indexed": false,
          "internalType": "address",
          "name": "author",
          "type": "address"
        }
      ],
      "name": "usercreated",
      "type": "event"
    },
    {
      "anonymous": false,
      "inputs": [
        {
          "indexed": false,
          "internalType": "string",
          "name": "phone_number",
          "type": "string"
        },
        {
          "indexed": false,
          "internalType": "address",
          "name": "author",
          "type": "address"
        }
      ],
      "name": "userdeleted",
      "type": "event"
    },
    {
      "anonymous": false,
      "inputs": [
        {
          "indexed": false,
          "internalType": "string",
          "name": "name",
          "type": "string"
        },
        {
          "indexed": false,
          "internalType": "string",
          "name": "phone_number",
          "type": "string"
        },
        {
          "indexed": false,
          "internalType": "string",
          "name": "address_",
          "type": "string"
        },
        {
          "indexed": false,
          "internalType": "string",
          "name": "gender",
          "type": "string"
        },
        {
          "indexed": false,
          "internalType": "uint256",
          "name": "age",
          "type": "uint256"
        },
        {
          "indexed": false,
          "internalType": "address",
          "name": "author",
          "type": "address"
        }
      ],
      "name": "useredited",
      "type": "event"
    },
    {
      "constant": true,
      "inputs": [],
      "name": "counter",
      "outputs": [
        {
          "internalType": "uint256",
          "name": "",
          "type": "uint256"
        }
      ],
      "payable": false,
      "stateMutability": "view",
      "type": "function"
    },
    {
      "constant": true,
      "inputs": [],
      "name": "ordercounter",
      "outputs": [
        {
          "internalType": "uint256",
          "name": "",
          "type": "uint256"
        }
      ],
      "payable": false,
      "stateMutability": "view",
      "type": "function"
    },
    {
      "constant": true,
      "inputs": [
        {
          "internalType": "uint256",
          "name": "",
          "type": "uint256"
        }
      ],
      "name": "orders",
      "outputs": [
        {
          "internalType": "string",
          "name": "username",
          "type": "string"
        },
        {
          "internalType": "string",
          "name": "userphone",
          "type": "string"
        },
        {
          "internalType": "string",
          "name": "product_title",
          "type": "string"
        },
        {
          "internalType": "string",
          "name": "product_quantity",
          "type": "string"
        },
        {
          "internalType": "string",
          "name": "date",
          "type": "string"
        },
        {
          "internalType": "uint256",
          "name": "price",
          "type": "uint256"
        },
        {
          "internalType": "uint256",
          "name": "id",
          "type": "uint256"
        }
      ],
      "payable": false,
      "stateMutability": "view",
      "type": "function"
    },
    {
      "constant": true,
      "inputs": [
        {
          "internalType": "uint256",
          "name": "",
          "type": "uint256"
        }
      ],
      "name": "products",
      "outputs": [
        {
          "internalType": "uint256",
          "name": "id",
          "type": "uint256"
        },
        {
          "internalType": "string",
          "name": "title",
          "type": "string"
        },
        {
          "internalType": "uint256",
          "name": "price",
          "type": "uint256"
        },
        {
          "internalType": "string",
          "name": "desc",
          "type": "string"
        },
        {
          "internalType": "string",
          "name": "quantity",
          "type": "string"
        },
        {
          "internalType": "string",
          "name": "image",
          "type": "string"
        },
        {
          "internalType": "address",
          "name": "created_by",
          "type": "address"
        }
      ],
      "payable": false,
      "stateMutability": "view",
      "type": "function"
    },
    {
      "constant": true,
      "inputs": [],
      "name": "usercounter",
      "outputs": [
        {
          "internalType": "uint256",
          "name": "",
          "type": "uint256"
        }
      ],
      "payable": false,
      "stateMutability": "view",
      "type": "function"
    },
    {
      "constant": true,
      "inputs": [
        {
          "internalType": "string",
          "name": "",
          "type": "string"
        }
      ],
      "name": "users",
      "outputs": [
        {
          "internalType": "string",
          "name": "name",
          "type": "string"
        },
        {
          "internalType": "string",
          "name": "phone_number",
          "type": "string"
        },
        {
          "internalType": "string",
          "name": "address_",
          "type": "string"
        },
        {
          "internalType": "string",
          "name": "gender",
          "type": "string"
        },
        {
          "internalType": "uint256",
          "name": "age",
          "type": "uint256"
        }
      ],
      "payable": false,
      "stateMutability": "view",
      "type": "function"
    },
    {
      "constant": false,
      "inputs": [
        {
          "internalType": "string",
          "name": "title",
          "type": "string"
        },
        {
          "internalType": "uint256",
          "name": "price",
          "type": "uint256"
        },
        {
          "internalType": "string",
          "name": "desc",
          "type": "string"
        },
        {
          "internalType": "string",
          "name": "quantity",
          "type": "string"
        },
        {
          "internalType": "string",
          "name": "image",
          "type": "string"
        }
      ],
      "name": "createproduct",
      "outputs": [],
      "payable": false,
      "stateMutability": "nonpayable",
      "type": "function"
    },
    {
      "constant": false,
      "inputs": [
        {
          "internalType": "uint256",
          "name": "id",
          "type": "uint256"
        },
        {
          "internalType": "string",
          "name": "title",
          "type": "string"
        },
        {
          "internalType": "uint256",
          "name": "price",
          "type": "uint256"
        },
        {
          "internalType": "string",
          "name": "desc",
          "type": "string"
        },
        {
          "internalType": "string",
          "name": "quantity",
          "type": "string"
        },
        {
          "internalType": "string",
          "name": "image",
          "type": "string"
        }
      ],
      "name": "editproduct",
      "outputs": [],
      "payable": false,
      "stateMutability": "nonpayable",
      "type": "function"
    },
    {
      "constant": false,
      "inputs": [
        {
          "internalType": "uint256",
          "name": "id",
          "type": "uint256"
        }
      ],
      "name": "deleteproduct",
      "outputs": [],
      "payable": false,
      "stateMutability": "nonpayable",
      "type": "function"
    },
    {
      "constant": true,
      "inputs": [],
      "name": "getallproudcts",
      "outputs": [
        {
          "components": [
            {
              "internalType": "uint256",
              "name": "id",
              "type": "uint256"
            },
            {
              "internalType": "string",
              "name": "title",
              "type": "string"
            },
            {
              "internalType": "uint256",
              "name": "price",
              "type": "uint256"
            },
            {
              "internalType": "string",
              "name": "desc",
              "type": "string"
            },
            {
              "internalType": "string",
              "name": "quantity",
              "type": "string"
            },
            {
              "internalType": "string",
              "name": "image",
              "type": "string"
            },
            {
              "internalType": "address",
              "name": "created_by",
              "type": "address"
            }
          ],
          "internalType": "struct Ecommerce.Product[]",
          "name": "",
          "type": "tuple[]"
        }
      ],
      "payable": false,
      "stateMutability": "view",
      "type": "function"
    },
    {
      "constant": false,
      "inputs": [
        {
          "internalType": "string",
          "name": "name",
          "type": "string"
        },
        {
          "internalType": "string",
          "name": "phone_number",
          "type": "string"
        },
        {
          "internalType": "string",
          "name": "address_",
          "type": "string"
        },
        {
          "internalType": "string",
          "name": "gender",
          "type": "string"
        },
        {
          "internalType": "uint256",
          "name": "age",
          "type": "uint256"
        }
      ],
      "name": "createuser",
      "outputs": [],
      "payable": false,
      "stateMutability": "nonpayable",
      "type": "function"
    },
    {
      "constant": false,
      "inputs": [
        {
          "internalType": "string",
          "name": "old_phone_number",
          "type": "string"
        },
        {
          "internalType": "string",
          "name": "new_name",
          "type": "string"
        },
        {
          "internalType": "string",
          "name": "new_address_",
          "type": "string"
        },
        {
          "internalType": "string",
          "name": "new_gender",
          "type": "string"
        },
        {
          "internalType": "uint256",
          "name": "new_age",
          "type": "uint256"
        }
      ],
      "name": "edituser",
      "outputs": [],
      "payable": false,
      "stateMutability": "nonpayable",
      "type": "function"
    },
    {
      "constant": false,
      "inputs": [
        {
          "internalType": "string",
          "name": "phone_number",
          "type": "string"
        }
      ],
      "name": "deleteuser",
      "outputs": [],
      "payable": false,
      "stateMutability": "nonpayable",
      "type": "function"
    },
    {
      "constant": false,
      "inputs": [
        {
          "internalType": "uint256",
          "name": "product_id",
          "type": "uint256"
        },
        {
          "internalType": "string",
          "name": "phone_number",
          "type": "string"
        }
      ],
      "name": "addtocart",
      "outputs": [],
      "payable": false,
      "stateMutability": "nonpayable",
      "type": "function"
    },
    {
      "constant": false,
      "inputs": [
        {
          "internalType": "string",
          "name": "phone_number",
          "type": "string"
        },
        {
          "internalType": "string",
          "name": "name",
          "type": "string"
        },
        {
          "internalType": "uint256",
          "name": "age",
          "type": "uint256"
        },
        {
          "internalType": "string",
          "name": "gender",
          "type": "string"
        }
      ],
      "name": "addfamilymember",
      "outputs": [],
      "payable": false,
      "stateMutability": "nonpayable",
      "type": "function"
    },
    {
      "constant": true,
      "inputs": [
        {
          "internalType": "string",
          "name": "phone_number",
          "type": "string"
        }
      ],
      "name": "getfamilymembers",
      "outputs": [
        {
          "components": [
            {
              "internalType": "string",
              "name": "name",
              "type": "string"
            },
            {
              "internalType": "uint256",
              "name": "age",
              "type": "uint256"
            },
            {
              "internalType": "string",
              "name": "gender",
              "type": "string"
            }
          ],
          "internalType": "struct Ecommerce.Person[]",
          "name": "",
          "type": "tuple[]"
        }
      ],
      "payable": false,
      "stateMutability": "view",
      "type": "function"
    },
    {
      "constant": false,
      "inputs": [
        {
          "internalType": "string",
          "name": "username",
          "type": "string"
        },
        {
          "internalType": "string",
          "name": "userphone",
          "type": "string"
        },
        {
          "internalType": "string",
          "name": "product_title",
          "type": "string"
        },
        {
          "internalType": "string",
          "name": "product_quantity",
          "type": "string"
        },
        {
          "internalType": "string",
          "name": "date",
          "type": "string"
        },
        {
          "internalType": "uint256",
          "name": "price",
          "type": "uint256"
        }
      ],
      "name": "createorder",
      "outputs": [],
      "payable": false,
      "stateMutability": "nonpayable",
      "type": "function"
    }
  ],
  "bytecode": "0x608060405234801561001057600080fd5b50600160038190555060016004819055506001600581905550612fab806100386000396000f3fe608060405234801561001057600080fd5b506004361061010b5760003560e01c8063a162f7e9116100a2578063c3ed5a8011610071578063c3ed5a80146102b4578063d762627b146102e4578063d867d35114610300578063dc17daf11461031c578063ee0cf1c4146103385761010b565b8063a162f7e914610228578063a78bd0cd14610246578063a85c38ef14610262578063b0ea3281146102985761010b565b8063689e1c03116100de578063689e1c0314610186578063689e44dc146101ba5780636a491f4c146101d65780637acc0b20146101f25761010b565b80634d8b7740146101105780635e9e22381461012e57806361bc221a1461014a5780636245814e14610168575b600080fd5b610118610354565b6040516101259190612af6565b60405180910390f35b61014860048036036101439190810190612080565b61035a565b005b610152610429565b60405161015f9190612af6565b60405180910390f35b61017061042f565b60405161017d9190612af6565b60405180910390f35b6101a0600480360361019b9190810190611efd565b610435565b6040516101b19594939291906129b7565b60405180910390f35b6101d460048036036101cf9190810190612202565b6106e1565b005b6101f060048036036101eb9190810190612356565b61084d565b005b61020c600480360361020791908101906122d9565b610997565b60405161021f9796959493929190612b3a565b60405180910390f35b610230610c59565b60405161023d9190612848565b60405180910390f35b610260600480360361025b9190810190612302565b611102565b005b61027c600480360361027791908101906122d9565b6111c6565b60405161028f9796959493929190612925565b60405180910390f35b6102b260048036036102ad9190810190611f3e565b611500565b005b6102ce60048036036102c99190810190611f3e565b6115c5565b6040516102db9190612826565b60405180910390f35b6102fe60048036036102f99190810190612080565b611799565b005b61031a60048036036103159190810190611f7f565b611887565b005b610336600480360361033191908101906122d9565b6119a8565b005b610352600480360361034d9190810190612157565b611a70565b005b60055481565b600060018660405161036c919061280f565b9081526020016040518091039020905084816002019080519060200190610394929190611bd3565b50838160040190805190602001906103ad929190611bd3565b50818160060181905550828160050190805190602001906103cf929190611bd3565b507f359756a6e14e6838e05718d7d1eee194305202c24bcfb05f46725770b5ed41a28160020182600301836004018460050185600601543360405161041996959493929190612a26565b60405180910390a1505050505050565b60035481565b60045481565b600181805160208101820180518482526020830160208501208183528095505050505050600091509050806002018054600181600116156101000203166002900480601f0160208091040260200160405190810160405280929190818152602001828054600181600116156101000203166002900480156104f75780601f106104cc576101008083540402835291602001916104f7565b820191906000526020600020905b8154815290600101906020018083116104da57829003601f168201915b505050505090806003018054600181600116156101000203166002900480601f0160208091040260200160405190810160405280929190818152602001828054600181600116156101000203166002900480156105955780601f1061056a57610100808354040283529160200191610595565b820191906000526020600020905b81548152906001019060200180831161057857829003601f168201915b505050505090806004018054600181600116156101000203166002900480601f0160208091040260200160405190810160405280929190818152602001828054600181600116156101000203166002900480156106335780601f1061060857610100808354040283529160200191610633565b820191906000526020600020905b81548152906001019060200180831161061657829003601f168201915b505050505090806005018054600181600116156101000203166002900480601f0160208091040260200160405190810160405280929190818152602001828054600181600116156101000203166002900480156106d15780601f106106a6576101008083540402835291602001916106d1565b820191906000526020600020905b8154815290600101906020018083116106b457829003601f168201915b5050505050908060060154905085565b60006003549050600080600083815260200190815260200160002090508181600001819055508681600101908051906020019061071f929190611bd3565b5085816002018190555084816003019080519060200190610741929190611bd3565b508281600501908051906020019061075a929190611bd3565b5083816004019080519060200190610773929190611bd3565b50338160060160006101000a81548173ffffffffffffffffffffffffffffffffffffffff021916908373ffffffffffffffffffffffffffffffffffffffff1602179055507f5971ac32b81208fbb63bf07dc34bca438eeaa0b1f425caa5c7bbbeb5fa006eca81600001548260010183600201548460030185600501866004018760060160009054906101000a900473ffffffffffffffffffffffffffffffffffffffff1660405161082a9796959493929190612c66565b60405180910390a160036000815480929190600101919050555050505050505050565b600080600088815260200190815260200160002090508581600101908051906020019061087b929190611bd3565b508481600201819055508381600301908051906020019061089d929190611bd3565b50818160050190805190602001906108b6929190611bd3565b50828160040190805190602001906108cf929190611bd3565b50338160060160006101000a81548173ffffffffffffffffffffffffffffffffffffffff021916908373ffffffffffffffffffffffffffffffffffffffff1602179055507ff0bd984ec47172879785e4fbb4c1164f314ed45e832543c56184393a9ac2bccd81600001548260010183600201548460030185600501866004018760060160009054906101000a900473ffffffffffffffffffffffffffffffffffffffff166040516109869796959493929190612c66565b60405180910390a150505050505050565b6000602052806000526040600020600091509050806000015490806001018054600181600116156101000203166002900480601f016020809104026020016040519081016040528092919081815260200182805460018160011615610100020316600290048015610a495780601f10610a1e57610100808354040283529160200191610a49565b820191906000526020600020905b815481529060010190602001808311610a2c57829003601f168201915b505050505090806002015490806003018054600181600116156101000203166002900480601f016020809104026020016040519081016040528092919081815260200182805460018160011615610100020316600290048015610aed5780601f10610ac257610100808354040283529160200191610aed565b820191906000526020600020905b815481529060010190602001808311610ad057829003601f168201915b505050505090806004018054600181600116156101000203166002900480601f016020809104026020016040519081016040528092919081815260200182805460018160011615610100020316600290048015610b8b5780601f10610b6057610100808354040283529160200191610b8b565b820191906000526020600020905b815481529060010190602001808311610b6e57829003601f168201915b505050505090806005018054600181600116156101000203166002900480601f016020809104026020016040519081016040528092919081815260200182805460018160011615610100020316600290048015610c295780601f10610bfe57610100808354040283529160200191610c29565b820191906000526020600020905b815481529060010190602001808311610c0c57829003601f168201915b5050505050908060060160009054906101000a900473ffffffffffffffffffffffffffffffffffffffff16905087565b606080600354604051908082528060200260200182016040528015610c9857816020015b610c85611c53565b815260200190600190039081610c7d5790505b50905060008090505b6003548110156110fa5760606000808381526020019081526020016000206001018054600181600116156101000203166002900480601f016020809104026020016040519081016040528092919081815260200182805460018160011615610100020316600290048015610d565780601f10610d2b57610100808354040283529160200191610d56565b820191906000526020600020905b815481529060010190602001808311610d3957829003601f168201915b50505050509050606060405180602001604052806000815250905080604051602001610d82919061280f565b6040516020818303038152906040528051906020012082604051602001610da9919061280f565b60405160208183030381529060405280519060200120146110eb576000808481526020019081526020016000206040518060e001604052908160008201548152602001600182018054600181600116156101000203166002900480601f016020809104026020016040519081016040528092919081815260200182805460018160011615610100020316600290048015610e845780601f10610e5957610100808354040283529160200191610e84565b820191906000526020600020905b815481529060010190602001808311610e6757829003601f168201915b5050505050815260200160028201548152602001600382018054600181600116156101000203166002900480601f016020809104026020016040519081016040528092919081815260200182805460018160011615610100020316600290048015610f305780601f10610f0557610100808354040283529160200191610f30565b820191906000526020600020905b815481529060010190602001808311610f1357829003601f168201915b50505050508152602001600482018054600181600116156101000203166002900480601f016020809104026020016040519081016040528092919081815260200182805460018160011615610100020316600290048015610fd25780601f10610fa757610100808354040283529160200191610fd2565b820191906000526020600020905b815481529060010190602001808311610fb557829003601f168201915b50505050508152602001600582018054600181600116156101000203166002900480601f0160208091040260200160405190810160405280929190818152602001828054600181600116156101000203166002900480156110745780601f1061104957610100808354040283529160200191611074565b820191906000526020600020905b81548152906001019060200180831161105757829003601f168201915b505050505081526020016006820160009054906101000a900473ffffffffffffffffffffffffffffffffffffffff1673ffffffffffffffffffffffffffffffffffffffff1673ffffffffffffffffffffffffffffffffffffffff16815250508484815181106110df57fe5b60200260200101819052505b50508080600101915050610ca1565b508091505090565b6000600182604051611114919061280f565b908152602001604051809103902090508060000183908060018154018082558091505090600182039060005260206000200160009091929091909150555060008160000180549050905060006001820390507f71e44deb82e58782faf9c415d841a94b15157a6cb840a3756595a919b561a0f28184600001838154811061119757fe5b906000526020600020015485600301336040516111b79493929190612cf1565b60405180910390a15050505050565b6002602052806000526040600020600091509050806000018054600181600116156101000203166002900480601f0160208091040260200160405190810160405280929190818152602001828054600181600116156101000203166002900480156112725780601f1061124757610100808354040283529160200191611272565b820191906000526020600020905b81548152906001019060200180831161125557829003601f168201915b505050505090806001018054600181600116156101000203166002900480601f0160208091040260200160405190810160405280929190818152602001828054600181600116156101000203166002900480156113105780601f106112e557610100808354040283529160200191611310565b820191906000526020600020905b8154815290600101906020018083116112f357829003601f168201915b505050505090806002018054600181600116156101000203166002900480601f0160208091040260200160405190810160405280929190818152602001828054600181600116156101000203166002900480156113ae5780601f10611383576101008083540402835291602001916113ae565b820191906000526020600020905b81548152906001019060200180831161139157829003601f168201915b505050505090806003018054600181600116156101000203166002900480601f01602080910402602001604051908101604052809291908181526020018280546001816001161561010002031660029004801561144c5780601f106114215761010080835404028352916020019161144c565b820191906000526020600020905b81548152906001019060200180831161142f57829003601f168201915b505050505090806004018054600181600116156101000203166002900480601f0160208091040260200160405190810160405280929190818152602001828054600181600116156101000203166002900480156114ea5780601f106114bf576101008083540402835291602001916114ea565b820191906000526020600020905b8154815290600101906020018083116114cd57829003601f168201915b5050505050908060050154908060060154905087565b600181604051611510919061280f565b90815260200160405180910390206000808201600061152f9190611ca6565b60018201600061153f9190611cc7565b60028201600061154f9190611ceb565b60038201600061155f9190611ceb565b60048201600061156f9190611ceb565b60058201600061157f9190611ceb565b600682016000905550507f91b82fab30d806d0393aeb51ef4c2cfc914b2eb6789f5886673b0e11dacc0ba381336040516115ba92919061286a565b60405180910390a150565b606060006001836040516115d9919061280f565b9081526020016040518091039020905080600101805480602002602001604051908101604052809291908181526020016000905b8282101561178d5783829060005260206000209060030201604051806060016040529081600082018054600181600116156101000203166002900480601f0160208091040260200160405190810160405280929190818152602001828054600181600116156101000203166002900480156116c95780601f1061169e576101008083540402835291602001916116c9565b820191906000526020600020905b8154815290600101906020018083116116ac57829003601f168201915b5050505050815260200160018201548152602001600282018054600181600116156101000203166002900480601f0160208091040260200160405190810160405280929190818152602001828054600181600116156101000203166002900480156117755780601f1061174a57610100808354040283529160200191611775565b820191906000526020600020905b81548152906001019060200180831161175857829003601f168201915b5050505050815250508152602001906001019061160d565b50505050915050919050565b60006001856040516117ab919061280f565b90815260200160405180910390209050858160020190805190602001906117d3929190611bd3565b50848160030190805190602001906117ec929190611bd3565b5083816004019080519060200190611805929190611bd3565b5081816006018190555082816005019080519060200190611827929190611bd3565b507f8c12296ffdf053eed0a4cd59ff2834d974ea059a3055156c12e92fe9b3b66615868686868660045433604051611865979695949392919061289a565b60405180910390a1600460008154809291906001019190505550505050505050565b600060026000600554815260200190815260200160002090506005548160060181905550868160000190805190602001906118c3929190611bd3565b50858160010190805190602001906118dc929190611bd3565b50848160020190805190602001906118f5929190611bd3565b508381600301908051906020019061190e929190611bd3565b5082816004019080519060200190611927929190611bd3565b508181600501819055507f304bee479bd884289934a9db2839261988e7e51ab0fa3b9129781b3ecfe83dd481600601548260000183600101846002018560030186600401876005015433604051611985989796959493929190612bc5565b60405180910390a160056000815480929190600101919050555050505050505050565b6000808281526020019081526020016000206000808201600090556001820160006119d39190611ceb565b60028201600090556003820160006119eb9190611ceb565b6004820160006119fb9190611ceb565b600582016000611a0b9190611ceb565b6006820160006101000a81549073ffffffffffffffffffffffffffffffffffffffff021916905550507f156ee650e49bca376e6b37ed731fd8d830227f6fd4b80de6b837338857b181368133604051611a65929190612b11565b60405180910390a150565b6000600185604051611a82919061280f565b90815260200160405180910390209050611a9a611d33565b838160200181815250508281604001819052508481600001819052508160010181908060018154018082558091505090600182039060005260206000209060030201600090919290919091506000820151816000019080519060200190611b02929190611d54565b50602082015181600101556040820151816002019080519060200190611b29929190611d54565b505050507f09870693a5408f85aaefe88be6046e9ee3a54ddbaa3c1661515cfdb8c7a2d47682600101600081548110611b5e57fe5b906000526020600020906003020160000183600101600081548110611b7f57fe5b90600052602060002090600302016001015484600101600081548110611ba157fe5b906000526020600020906003020160020133604051611bc39493929190612aa3565b60405180910390a1505050505050565b828054600181600116156101000203166002900490600052602060002090601f016020900481019282601f10611c1457805160ff1916838001178555611c42565b82800160010185558215611c42579182015b82811115611c41578251825591602001919060010190611c26565b5b509050611c4f9190611dd4565b5090565b6040518060e00160405280600081526020016060815260200160008152602001606081526020016060815260200160608152602001600073ffffffffffffffffffffffffffffffffffffffff1681525090565b5080546000825590600052602060002090810190611cc49190611dd4565b50565b5080546000825560030290600052602060002090810190611ce89190611df9565b50565b50805460018160011615610100020316600290046000825580601f10611d115750611d30565b601f016020900490600052602060002090810190611d2f9190611dd4565b5b50565b60405180606001604052806060815260200160008152602001606081525090565b828054600181600116156101000203166002900490600052602060002090601f016020900481019282601f10611d9557805160ff1916838001178555611dc3565b82800160010185558215611dc3579182015b82811115611dc2578251825591602001919060010190611da7565b5b509050611dd09190611dd4565b5090565b611df691905b80821115611df2576000816000905550600101611dda565b5090565b90565b611e3d91905b80821115611e395760008082016000611e189190611ceb565b6001820160009055600282016000611e309190611ceb565b50600301611dff565b5090565b90565b600082601f830112611e5157600080fd5b8135611e64611e5f82612d6a565b612d3d565b91508082526020830160208301858383011115611e8057600080fd5b611e8b838284612efe565b50505092915050565b600082601f830112611ea557600080fd5b8135611eb8611eb382612d96565b612d3d565b91508082526020830160208301858383011115611ed457600080fd5b611edf838284612efe565b50505092915050565b600081359050611ef781612f51565b92915050565b600060208284031215611f0f57600080fd5b600082013567ffffffffffffffff811115611f2957600080fd5b611f3584828501611e40565b91505092915050565b600060208284031215611f5057600080fd5b600082013567ffffffffffffffff811115611f6a57600080fd5b611f7684828501611e94565b91505092915050565b60008060008060008060c08789031215611f9857600080fd5b600087013567ffffffffffffffff811115611fb257600080fd5b611fbe89828a01611e94565b965050602087013567ffffffffffffffff811115611fdb57600080fd5b611fe789828a01611e94565b955050604087013567ffffffffffffffff81111561200457600080fd5b61201089828a01611e94565b945050606087013567ffffffffffffffff81111561202d57600080fd5b61203989828a01611e94565b935050608087013567ffffffffffffffff81111561205657600080fd5b61206289828a01611e94565b92505060a061207389828a01611ee8565b9150509295509295509295565b600080600080600060a0868803121561209857600080fd5b600086013567ffffffffffffffff8111156120b257600080fd5b6120be88828901611e94565b955050602086013567ffffffffffffffff8111156120db57600080fd5b6120e788828901611e94565b945050604086013567ffffffffffffffff81111561210457600080fd5b61211088828901611e94565b935050606086013567ffffffffffffffff81111561212d57600080fd5b61213988828901611e94565b925050608061214a88828901611ee8565b9150509295509295909350565b6000806000806080858703121561216d57600080fd5b600085013567ffffffffffffffff81111561218757600080fd5b61219387828801611e94565b945050602085013567ffffffffffffffff8111156121b057600080fd5b6121bc87828801611e94565b93505060406121cd87828801611ee8565b925050606085013567ffffffffffffffff8111156121ea57600080fd5b6121f687828801611e94565b91505092959194509250565b600080600080600060a0868803121561221a57600080fd5b600086013567ffffffffffffffff81111561223457600080fd5b61224088828901611e94565b955050602061225188828901611ee8565b945050604086013567ffffffffffffffff81111561226e57600080fd5b61227a88828901611e94565b935050606086013567ffffffffffffffff81111561229757600080fd5b6122a388828901611e94565b925050608086013567ffffffffffffffff8111156122c057600080fd5b6122cc88828901611e94565b9150509295509295909350565b6000602082840312156122eb57600080fd5b60006122f984828501611ee8565b91505092915050565b6000806040838503121561231557600080fd5b600061232385828601611ee8565b925050602083013567ffffffffffffffff81111561234057600080fd5b61234c85828601611e94565b9150509250929050565b60008060008060008060c0878903121561236f57600080fd5b600061237d89828a01611ee8565b965050602087013567ffffffffffffffff81111561239a57600080fd5b6123a689828a01611e94565b95505060406123b789828a01611ee8565b945050606087013567ffffffffffffffff8111156123d457600080fd5b6123e089828a01611e94565b935050608087013567ffffffffffffffff8111156123fd57600080fd5b61240989828a01611e94565b92505060a087013567ffffffffffffffff81111561242657600080fd5b61243289828a01611e94565b9150509295509295509295565b600061244b83836126e9565b905092915050565b600061245f8383612740565b905092915050565b61247081612ec8565b82525050565b61247f81612e8c565b82525050565b61248e81612e8c565b82525050565b600061249f82612df7565b6124a98185612e3d565b9350836020820285016124bb85612dc2565b8060005b858110156124f757848403895281516124d8858261243f565b94506124e383612e23565b925060208a019950506001810190506124bf565b50829750879550505050505092915050565b600061251482612e02565b61251e8185612e4e565b93508360208202850161253085612dd2565b8060005b8581101561256c578484038952815161254d8582612453565b945061255883612e30565b925060208a01995050600181019050612534565b50829750879550505050505092915050565b600061258982612e18565b6125938185612e70565b93506125a3818560208601612f0d565b6125ac81612f40565b840191505092915050565b60006125c282612e18565b6125cc8185612e81565b93506125dc818560208601612f0d565b80840191505092915050565b60006125f382612e0d565b6125fd8185612e5f565b935061260d818560208601612f0d565b61261681612f40565b840191505092915050565b600061262c82612e0d565b6126368185612e70565b9350612646818560208601612f0d565b61264f81612f40565b840191505092915050565b600081546001811660008114612677576001811461269d576126e1565b607f60028304166126888187612e70565b955060ff1983168652602086019350506126e1565b600282046126ab8187612e70565b95506126b685612de2565b60005b828110156126d8578154818901526001820191506020810190506126b9565b80880195505050505b505092915050565b6000606083016000830151848203600086015261270682826125e8565b915050602083015161271b60208601826127f1565b506040830151848203604086015261273382826125e8565b9150508091505092915050565b600060e08301600083015161275860008601826127f1565b506020830151848203602086015261277082826125e8565b915050604083015161278560408601826127f1565b506060830151848203606086015261279d82826125e8565b915050608083015184820360808601526127b782826125e8565b91505060a083015184820360a08601526127d182826125e8565b91505060c08301516127e660c0860182612476565b508091505092915050565b6127fa81612ebe565b82525050565b61280981612ebe565b82525050565b600061281b82846125b7565b915081905092915050565b600060208201905081810360008301526128408184612494565b905092915050565b600060208201905081810360008301526128628184612509565b905092915050565b60006040820190508181036000830152612884818561257e565b90506128936020830184612467565b9392505050565b600060e08201905081810360008301526128b4818a61257e565b905081810360208301526128c8818961257e565b905081810360408301526128dc818861257e565b905081810360608301526128f0818761257e565b90506128ff6080830186612800565b61290c60a0830185612800565b61291960c0830184612467565b98975050505050505050565b600060e082019050818103600083015261293f818a612621565b905081810360208301526129538189612621565b905081810360408301526129678188612621565b9050818103606083015261297b8187612621565b9050818103608083015261298f8186612621565b905061299e60a0830185612800565b6129ab60c0830184612800565b98975050505050505050565b600060a08201905081810360008301526129d18188612621565b905081810360208301526129e58187612621565b905081810360408301526129f98186612621565b90508181036060830152612a0d8185612621565b9050612a1c6080830184612800565b9695505050505050565b600060c0820190508181036000830152612a40818961265a565b90508181036020830152612a54818861265a565b90508181036040830152612a68818761265a565b90508181036060830152612a7c818661265a565b9050612a8b6080830185612800565b612a9860a0830184612467565b979650505050505050565b60006080820190508181036000830152612abd818761265a565b9050612acc6020830186612800565b8181036040830152612ade818561265a565b9050612aed6060830184612467565b95945050505050565b6000602082019050612b0b6000830184612800565b92915050565b6000604082019050612b266000830185612800565b612b336020830184612467565b9392505050565b600060e082019050612b4f600083018a612800565b8181036020830152612b618189612621565b9050612b706040830188612800565b8181036060830152612b828187612621565b90508181036080830152612b968186612621565b905081810360a0830152612baa8185612621565b9050612bb960c0830184612485565b98975050505050505050565b600061010082019050612bdb600083018b612800565b8181036020830152612bed818a61265a565b90508181036040830152612c01818961265a565b90508181036060830152612c15818861265a565b90508181036080830152612c29818761265a565b905081810360a0830152612c3d818661265a565b9050612c4c60c0830185612800565b612c5960e0830184612467565b9998505050505050505050565b600060e082019050612c7b600083018a612800565b8181036020830152612c8d818961265a565b9050612c9c6040830188612800565b8181036060830152612cae818761265a565b90508181036080830152612cc2818661265a565b905081810360a0830152612cd6818561265a565b9050612ce560c0830184612485565b98975050505050505050565b6000608082019050612d066000830187612800565b612d136020830186612800565b8181036040830152612d25818561265a565b9050612d346060830184612467565b95945050505050565b6000604051905081810181811067ffffffffffffffff82111715612d6057600080fd5b8060405250919050565b600067ffffffffffffffff821115612d8157600080fd5b601f19601f8301169050602081019050919050565b600067ffffffffffffffff821115612dad57600080fd5b601f19601f8301169050602081019050919050565b6000819050602082019050919050565b6000819050602082019050919050565b60008190508160005260206000209050919050565b600081519050919050565b600081519050919050565b600081519050919050565b600081519050919050565b6000602082019050919050565b6000602082019050919050565b600082825260208201905092915050565b600082825260208201905092915050565b600082825260208201905092915050565b600082825260208201905092915050565b600081905092915050565b6000612e9782612e9e565b9050919050565b600073ffffffffffffffffffffffffffffffffffffffff82169050919050565b6000819050919050565b6000612ed382612eda565b9050919050565b6000612ee582612eec565b9050919050565b6000612ef782612e9e565b9050919050565b82818337600083830152505050565b60005b83811015612f2b578082015181840152602081019050612f10565b83811115612f3a576000848401525b50505050565b6000601f19601f8301169050919050565b612f5a81612ebe565b8114612f6557600080fd5b5056fea365627a7a723158206329c8fe77c057253866267ec77cb73f74a9e26e7d5a1136ceacb37cf55cc5b26c6578706572696d656e74616cf564736f6c63430005100040",
  "source": "////////////////////////// Remaining functionalities ///////////////////////\n// 1. remove item from cart\n// 2. user family members editing\n// 3. user family members delete\n// 4. delete order\n// 5. mulitiple items orders\n\n//SPDX-License-Identifier: MIT\npragma solidity ^0.5.16;\npragma experimental ABIEncoderV2;\n\ncontract Ecommerce {\n    mapping(uint256 => Product) public products;\n    mapping(string => User) public users;\n    mapping(uint256 => Order) public orders;\n    uint256 public counter;\n    uint256 public usercounter;\n    uint256 public ordercounter;\n\n    constructor() public {\n        counter = 1;\n        usercounter = 1;\n        ordercounter = 1;\n    }\n\n    struct Order {\n        string username;\n        string userphone;\n        string product_title;\n        string product_quantity;\n        string date;\n        uint256 price;\n        uint256 id;\n    }\n    struct Person {\n        string name;\n        uint256 age;\n        string gender;\n    }\n    struct Product {\n        uint256 id;\n        string title;\n        uint256 price;\n        string desc;\n        string quantity;\n        string image;\n        address created_by;\n    }\n    struct User {\n        uint256[] cartitems;\n        Person[] family_members;\n        string name;\n        string phone_number;\n        string address_;\n        string gender;\n        uint256 age;\n    }\n\n    /////////////////////////////////////////////////product related functions start/////////////////////\n    event productcreated(\n        uint256 id,\n        string title,\n        uint256 price,\n        string desc,\n        string image,\n        string quantity,\n        address author\n    );\n    event productedited(\n        uint256 id,\n        string title,\n        uint256 price,\n        string desc,\n        string image,\n        string quantity,\n        address author\n    );\n    event productdeleted(uint256 id, address author);\n\n    function createproduct(\n        string memory title,\n        uint256 price,\n        string memory desc,\n        string memory quantity,\n        string memory image\n    ) public {\n        uint256 id = counter;\n        Product storage product = products[id];\n        product.id = id;\n        product.title = title;\n        product.price = price;\n        product.desc = desc;\n        product.image = image;\n        product.quantity = quantity;\n        product.created_by = msg.sender;\n        emit productcreated(\n            product.id,\n            product.title,\n            product.price,\n            product.desc,\n            product.image,\n            product.quantity,\n            product.created_by\n        );\n        counter++;\n    }\n\n    function editproduct(\n        uint256 id,\n        string memory title,\n        uint256 price,\n        string memory desc,\n        string memory quantity,\n        string memory image\n    ) public {\n        Product storage product = products[id];\n        product.title = title;\n        product.price = price;\n        product.desc = desc;\n        product.image = image;\n        product.quantity = quantity;\n        product.created_by = msg.sender;\n        emit productedited(\n            product.id,\n            product.title,\n            product.price,\n            product.desc,\n            product.image,\n            product.quantity,\n            product.created_by\n        );\n    }\n\n    function deleteproduct(uint256 id) public {\n        delete products[id];\n        emit productdeleted(id, msg.sender);\n    }\n\n    function getallproudcts() public view returns (Product[] memory) {\n        Product[] memory prods = new Product[](counter);\n        for (uint i = 0; i < counter; i++) {\n            string memory title=products[i].title;\n            string memory empty='';\n            if (keccak256(abi.encodePacked(title)) != keccak256(abi.encodePacked(empty))) {\n                prods[i]=products[i];\n}\n        }\n        return prods;\n    }\n\n    /////////////////////////////////////////////////product related functions end/////////////////////\n\n    /////////////////////////////////////////////////user related functions start/////////////////////\n\n    event usercreated(\n        string name,\n        string phone_number,\n        string address_,\n        string gender,\n        uint256 age,\n        uint256 counter,\n        address author\n    );\n    event useredited(\n        string name,\n        string phone_number,\n        string address_,\n        string gender,\n        uint256 age,\n        address author\n    );\n    event userdeleted(string phone_number, address author);\n    event member_added(string name, uint256 age, string gender, address author);\n    event cartitemadded(\n        uint256 last_index,\n        uint256 product_id,\n        string phone_number,\n        address author\n    );\n\n    function createuser(\n        string memory name,\n        string memory phone_number,\n        string memory address_,\n        string memory gender,\n        uint256 age\n    ) public {\n        User storage user = users[phone_number];\n        user.name = name;\n        user.phone_number = phone_number;\n        user.address_ = address_;\n        user.age = age;\n        user.gender = gender;\n\n        emit usercreated(\n            name,\n            phone_number,\n            address_,\n            gender,\n            age,\n            usercounter,\n            msg.sender\n        );\n        usercounter++;\n    }\n\n    function edituser(\n        string memory old_phone_number,\n        string memory new_name,\n        string memory new_address_,\n        string memory new_gender,\n        uint256 new_age\n    ) public {\n        User storage user = users[old_phone_number];\n        user.name = new_name;\n        user.address_ = new_address_;\n        user.age = new_age;\n        user.gender = new_gender;\n\n        emit useredited(\n            user.name,\n            user.phone_number,\n            user.address_,\n            user.gender,\n            user.age,\n            msg.sender\n        );\n    }\n\n    function deleteuser(string memory phone_number) public {\n        delete users[phone_number];\n        emit userdeleted(phone_number, msg.sender);\n    }\n\n    function addtocart(uint256 product_id, string memory phone_number) public {\n        User storage user = users[phone_number];\n        user.cartitems.push(product_id);\n        uint256 cart_len = user.cartitems.length;\n        uint256 last_index = cart_len - 1;\n        emit cartitemadded(\n            last_index,\n            user.cartitems[last_index],\n            user.phone_number,\n            msg.sender\n        );\n    }\n\n    function addfamilymember(\n        string memory phone_number,\n        string memory name,\n        uint256 age,\n        string memory gender\n    ) public {\n        User storage user = users[phone_number];\n        Person memory person;\n        person.age = age;\n        person.gender = gender;\n        person.name = name;\n        user.family_members.push(person);\n        emit member_added(\n            user.family_members[0].name,\n            user.family_members[0].age,\n            user.family_members[0].gender,\n            msg.sender\n        );\n    }\n\n    function getfamilymembers(string memory phone_number)\n        public\n        view\n        returns (Person[] memory)\n    {\n        User storage user = users[phone_number];\n        return user.family_members;\n    }\n\n    /////////////////////////////////////////////////user related functions end/////////////////////\n    event ordercreated(\n        uint256 id,\n        string username,\n        string userphone,\n        string product_title,\n        string product_quantity,\n        string date,\n        uint256 price,\n        address author\n    );\n\n    function createorder(\n        string memory username,\n        string memory userphone,\n        string memory product_title,\n        string memory product_quantity,\n        string memory date,\n        uint256 price\n    ) public {\n        Order storage order = orders[ordercounter];\n        order.id = ordercounter;\n        order.username = username;\n        order.userphone = userphone;\n        order.product_title = product_title;\n        order.product_quantity = product_quantity;\n        order.date = date;\n        order.price = price;\n        emit ordercreated(\n            order.id,\n            order.username,\n            order.userphone,\n            order.product_title,\n            order.product_quantity,\n            order.date,\n            order.price,\n            msg.sender\n        );\n        ordercounter++;\n    }\n}\n",
  "sourcePath": "/home/mudithacker/Desktop/starter_kit/src/contracts/Ecommerce.sol",
  "compiler": {
    "name": "solc",
    "version": "0.5.16+commit.9c3226ce.Emscripten.clang"
  },
  "schemaVersion": "3.4.11",
  "updatedAt": "2023-01-15T16:01:29.349Z",
  "networkType": "ethereum",
  "devdoc": {
    "methods": {}
  },
  "userdoc": {
    "methods": {}
  }
}